:1000000010000000005000004D450F0101000000ED
:10001000001800201D030000DD020000E1020000C6
:10002000E5020000E9020000ED020000000000000F
:10003000000000000000000000000000F1020000CD
:10004000F502000000000000F9020000FD020000BF
:10005000D50000009D01000021010000C10000004A
:10006000D90100000102000019030000190300007B
:100070001903000019030000190300001903000010
:100080001903000019030000190300001903000000
:1000900019030000190300001903000019030000F0
:1000A00019030000190300001903000019030000E0
:1000B00019030000190300001903000019030000D0
:1000C00019030000190300001903000019030000C0
:1000D000034A002313708022D20513707047C04674
:1000E0000000002000B50F4A002353708023DB0579
:1000F000D86B0D490140D963D86B0C490140D963D5
:10010000917800290CD05168DA6B0902120E090AA5
:1001100012060A43DA63D96B802252040A43DA6377
:1001200000BDC04600000020FFFFFFFEFFFFFFEF05
:1001300010B5A022D20594686407640FE3B2022BC5
:100140000AD0042B14D0012B16D1144B00211960B6
:10015000127B134B1A800FE0124B1B7A022B03D138
:100160000E4B1A6808321A600F4B1B68984703E061
:100170000A4B1A6808321A600A4B01211C72A0232C
:10018000DB051A680A431A60C046C046C046C0462E
:100190001A6810210A431A6010BDC04620000020D2
:1001A0001C000020000000201000002010B5A0233B
:1001B000DB051A6801210A431A601A6810210A43F4
:1001C0001A60064B1B689847054C237A022B02D114
:1001D000044B1B6898470023237210BD14000020B5
:1001E000000000200C000020064B00225A728023E1
:1001F000DB051968044A0A401A601968034A0A4074
:100200001A60704700000020FFFFF0FFFFFF0FFFA4
:100210007047C0467047064B01221A708023DB05E9
:100220000021597019680F2081430A431A607047F2
:1002300000000020064B01221A708023DB0519689C
:10024000044A0A40802149020A431A607047C046A6
:1002500009000020FFFFF0FF00B5064B72B61A78C8
:10026000002A04D0C046C04662B630BFF6E762B688
:1002700000BDC04609000020054B01221A708023F2
:10028000DB05D96B802252040A43DA637047C0460B
:100290000100002000B5054B72B61A78002A03D081
:1002A000C046C04662B6F7E762B600BD0000002057
:1002B00000B50B4B0B4A72B61978002902D11178A0
:1002C000002904D0C046C04662B630BFF3E762B62C
:1002D000054A1278002A01D001221A7000BDC046DA
:1002E00001000020000000200200002000B5FEE711
:1002F00000B5FEE700B5FEE700B5FEE700B5FEE796
:1003000000B5FEE700B5FEE700B5FEE700B5FEE785
:1003100000B5FEE700B5FEE700B5FEE700B5FEE775
:1003200000B5FEE700B5FEE700B5FEE708B5FF2320
:1003300000221B041A60BFF36F8F00F06DF808BD38
:10034000FFFFFFFFFFFFFFFFFFFFFFFFFFFFFFFFBD
:10035000FFFFFFFFFFFFFFFFFFFFFFFFFFFFFFFFAD
:10036000FFFFFFFFFFFFFFFFFFFFFFFFFFFFFFFF9D
:10037000FFFFFFFFFFFFFFFFFFFFFFFFFFFFFFFF8D
:10038000FFFFFFFFFFFFFFFFFFFFFFFFFFFFFFFF7D
:10039000FFFFFFFFFFFFFFFFFFFFFFFFFFFFFFFF6D
:1003A000FFFFFFFFFFFFFFFFFFFFFFFFFFFFFFFF5D
:1003B000FFFFFFFFFFFFFFFFFFFFFFFFFFFFFFFF4D
:1003C000FFFFFFFFFFFFFFFFFFFFFFFFFFFFFFFF3D
:1003D000FFFFFFFFFFFFFFFFFFFFFFFFFFFFFFFF2D
:1003E000FFFFFFFFFFFFFFFFFFFFFFFFFFFFFFFF1D
:1003F000FFFFFFFFFFFFFFFFFFFFFFFFFFFFFFFF0D
:10040000FFFFFFFFFFFFFFFFFFFFFFFFFFFFFF01FA
:100410004D314853434F3434F8B58023DB05996898
:10042000802292000A439A6099688022D2000A438F
:100430009A609968802212010A439A6002F07AFD5C
:1004400000F0F0FC00F008FD7C4BAA2218707C4BF9
:100450001A7003F00FFA002003F0DEFD002002F016
:1004600007FB784B784F0833DB7F5A425341102209
:10047000D21A764B1A703B78002B1DD1744A012496
:1004800013703C7000F04EFA724B201C9A785A7030
:1004900003F0C2FD02F082FC00F09AFD8023DB0530
:1004A000596B6D4A0A405A6300F094FA02F02CFA34
:1004B00000F08EFD00F056FD654B1B78002B1AD026
:1004C000664C2378002B16D0654B13201B68984789
:1004D00000F028FA02F0FEFB002000F0C7FB00F05D
:1004E00083FA604A012313705F4A138002F034FAE2
:1004F0002378002BFCD100F0BFFC544B1E7873B264
:100500000F2B17D005DC002B39D00D2B00D091E03C
:100510002AE0112B21D003DB132B00D08AE087E0E7
:100520004B4B00221A7000F01DFB504B1B78002B28
:1005300000D07FE0474B587802F0E8FC414DE87B63
:1005400002F07AFA4A4C6060287C02F075FA1123B6
:10055000A060EB56EA7B5343E3603D4B00221A70E8
:10056000444B187800F082FB394B00241C7000F0DB
:1005700031FA02F005FD00F02DFA344B1C70344BBB
:1005800001221A7000F0DEF9FFF776FEFFF743FE56
:1005900001203949404203F003F8314C062023681A
:1005A000984702F055FD02F065FD00F0A5F82368BC
:1005B0000720984703F038F8304B1B78002B18D1F0
:1005C00000F024FDFFF736FEFFF746FE00F0AFFD1A
:1005D00001F0F2FB01F036FC236812209847284B0B
:1005E0001B78002B01D101F0EFFD1D4B0D201B6886
:1005F000984700F0BBF8214B1B78002B0CD101F081
:1006000061FD01F030FE164B0F201B6898471D4B13
:100610001B68984702F024F880230122DB055A70FA
:10062000FFF746FE184B0020185600F037FC01E09B
:1006300000F0D0F9154B1E701DE7C04606040020DF
:10064000070400202E0C0020150400208007002045
:10065000160400201C0D0020FFC0FFFF1204002024
:10066000240600208F070020740700200E040020BD
:10067000B0000020461000200813002010130020B6
:100680000B04002018000020E203002031000020AD
:1006900008B501F093FD124B1B68984711490E23D2
:1006A0000022013BDBB2181C143040000818828085
:1006B000002BF6D10C490A22013AD2B28B54002AFF
:1006C000FAD10A4B0A491B7802E0013BDBB2CA545B
:1006D000002BFAD1034A1360064A136008BDC046D6
:1006E000180000201C01002038100020E80B00201A
:1006F000BD0B0020C000002010B5144B1B78002B50
:1007000023D0134C00232370124B04201B689847FE
:100710002378114C002B03D1104B1B78002B13D0E6
:100720000F4A012313702268022A03DCD2182260C8
:100730000C4A07E0FFF7ACFF0B4B0D221A700023A9
:10074000064A2360137000E0236010BD7A07002082
:100750000F13002024060020C8030020C50300203A
:1007600010130020BC0B00208007002038B55B4927
:1007700000230522013AD2B2101C0E30C000081826
:100780000424005F002800D00123002AF2D1544A3B
:100790005449127807E0013AD2B2101D4000405E81
:1007A000002800D00123002AF5D14F49002B04D1A5
:1007B0000A684E48824201D001320A604C49002248
:1007C0000A70934250D1474A1268002A4CD14948D6
:1007D0000278041C012A0AD147480578002D06D169
:1007E000464C02702370464C0A70237015E0454B4E
:1007F0001B68092B11DD2378012B0ED0424A1368A8
:1008000001331360022B08DD002313603C4A137090
:10081000394A1370364B02221A703C4B00221A7070
:10082000384B1A603A4B1968914208DD013919605A
:10083000012951D11A602E4B03221A704CE0354A1F
:1008400035494E3212888A4246D03449096891426D
:1008500042DB334A2448111C34310978006888424D
:100860003ADB3532127815E0294A00231360224A18
:1008700011782B4A994216D0118E284A1068234AC3
:10088000884209DA1378002B26D11E4B1A68092AF0
:1008900022DC01321A601FE001211170194A136035
:1008A000194A136018E0138D154A1178002906D1F2
:1008B00019498B4210D01949096899420CDB0F493C
:1008C00000230B700C49137001220A700F490B7042
:1008D000074B1A7001F072FC38BDC0468802002038
:1008E000E80B0020D8000020F0030020FFFFFF7F6E
:1008F000E20300203300002005040020E303002071
:100900000404002000040020F8030020FC03002061
:10091000F403002046100020FFFF00000813002011
:100920002E0C002010B502F0CFFF054C00202368EC
:10093000984703F029F823680120984710BDC04666
:100940002406002010B51C4B19781C4B4AB21C78A9
:10095000002C22D01A4B00241B78A3421DD1194B26
:10096000A14207D018490978A14203D11749096863
:10097000A14203D00021196001240EE01449186837
:10098000C968884201DA01301860022A10D00D4B84
:1009900002241B688B4203DA0AE063B2934207D059
:1009A0000B4A63B29B00D05802F076F8024B1C70E1
:1009B00002F064F810BDC046280000207A0700202D
:1009C000100400204400002018040020D80000205B
:1009D000B000002008B5FFF71EFC80230122DB05D4
:1009E0005A70FFF757FC08BDF0B587B00024FFF739
:1009F000F1FF514D0C21E879504A4FE014264E4347
:100A00004F1C7D001323039604970595013BDBB231
:100A1000002C1CD0039E4A4FF5186D00EE5F049F1A
:100A20005D1C2D01ED196D00575BAD5A0741F71B99
:100A30000541002F01DB751B00E0AD1B039EF7187D
:100A4000404EBE5DB54200DA351C3E4EBD55049F9A
:100A50005D1C2D01ED196D00565B039D0641ED18DF
:100A6000B6B20196364F6E00029600956D46BC46B2
:100A7000AF88029D6646AF53002C03D1314D009ED6
:100A8000745509E0632C07D1059DAF5A019D0741BC
:100A90007E1B2D4F029DEE53002BB7D10139C9B2F9
:100AA000FF29ABD1244A294BD1791B78234A3AE05C
:100AB000013B2748DBB2274EC05CF75C0390002C5B
:100AC0001BD0254E9D00AD59039E781C01360001B8
:100AD0008446301C604404964000165A805A0E41E9
:100AE000AE1B0841002E01DB281A00E0401B1B4D05
:100AF000EE5CB04200DA301CE854039D013701354A
:100B00003F017F197F00D05B134E08419F00B85111
:100B1000002C08D1114E6D00F454AD5A5E000D4109
:100B2000281A0F4D7053002BC2D10134E4B2642C4B
:100B300000D05CE707B0F0BD461000200008004080
:100B4000AE100020240D0020300E0020E80B002005
:100B50001F4D00001D4D00003C0600201A0D002016
:100B600042100020F7B501F0E1FE01F003FF00287C
:100B7000FBD1384B1B78022B09D0374B37494C330C
:100B80001A7853425418E05401339342FADD324E3E
:100B9000334F331C4C331C7864420CE0BA7880230A
:100BA0001219D2B2DB051A71FFF714FF287820184A
:100BB00002F0CEFC0134351C4C352B789C42EDDD27
:100BC000002624E02C782F1C64424C3F19E0244B73
:100BD0009A7880231219D2B2DB051A71FFF7FAFE58
:100BE0002D7801A96519281C02F0DAFC1B49019B2C
:100BF0004A5DFF2B00DDFF239A4200DA1A1C4A559A
:100C000001343D1C4C352B789C42E0DD0136154A01
:100C1000114D13784C359E42D4DB01F075FE2C78D3
:100C20000122121B0D4B00210F480BE05D781E784E
:100C30006D0075199E78AD19A84201DBA8B2111C90
:100C4000013201339442F1DC054B9A785118C9B254
:100C50005970F7BD0E04002046100020CE0300207E
:100C60001C0D002091100020FFFF0000F0B58BB09C
:100C70008222029000216148D20002F0C3FF029D4F
:100C80005F4B002D09D05F4A5B88157B1AB269B2B1
:100C9000914211DB5D1EEDB20EE09B785BB25B0012
:100CA0005B421E1C083601DA08235B42DBB20227D6
:100CB00003930497002504E06B42DBB20126039303
:100CC00004962C1C00265EE010226F46D15701F0DE
:100CD00099FFFFF77FFE4B4B0F27DF576AB205974F
:100CE000DB79921B069309920C2345E01422111C18
:100CF0005943581C079008910195029D013AD2B2C0
:100D0000002D0BD0162058433F4980184156059FAF
:100D10000998C919091807310E292AD80799501CB2
:100D2000000140181427394940005F43415A069D8D
:100D300037482941411ABF183048BF003858884207
:100D400017DC344F401AB84200DA381C14275F43CE
:100D5000BF187F00BC46304FB84200DD381C2F4D15
:100D600067467853089FB818244F8500E9512C49ED
:100D70004454002AC1D1019D013BDBB2FF2BB5D108
:100D8000013CE4B2013669460C22535660B29842E7
:100D90009ADA029D002D2AD01A4B2149DD7BDC7A9C
:100DA000131C20E00B269E42BF417F421422039772
:100DB00014205843013AD2B2162680185E43475C8D
:100DC000B618BC46104FF75D3E1C6644AE19F6B22D
:100DD00002974654122A04D8039F002F01D13619D6
:100DE0004654002AE4D1013BDBB2FF2BDAD10020CC
:100DF000011C01F007FF0BB0F0BDC04690070020BA
:100E00002C06002046100020214D00000008004064
:100E1000FFFF00000080FFFFFF7F0000AE100020FA
:100E2000240D002070B580232B250A4C5B006D42F9
:100E3000013BDAB2092106E056B25000C2B2002EE0
:100E400001DA6840C2B201390029F5D1E254002B21
:100E5000EED170BD1C04002010B50020A022054971
:100E6000031CD2011C7801336040085C9342F9D125
:100E700010BDC0461C04002008B5064B1B68002BA3
:100E800006D0054B1B78002B02D101F065FDFEE773
:100E900008BDC0460C1600201704002010B5041E23
:100EA00027DD022C02DD032C23D132E0FFF7F0FB1B
:100EB0002048022C04D120495C2202F065FE0BE0A0
:100EC0001E495C2202F060FE1D4B1B78012B03D0F3
:100ED0001C4B0B201B689847FFF724FD1A4B363339
:100EE0001A781A4B1A701B78102B22D101F0F2FEDF
:100EF0001FE0174B1A78002A05D0164A11680131F5
:100F0000116000221A70144B1A68132A04DD0022A3
:100F10001A6010220D4B0BE00E4B1A683B2A08DDBD
:100F200000221A600D4B01201B6898470C4B0122D0
:100F30001A7010BD46100020404C00009C4C000070
:100F400033000020240600202E0C00208007002003
:100F5000EC030020E8030020E403002054000020FC
:100F60001304002010B5164B00221A60154B012205
:100F700052425A60144B154C187E0138421E904163
:100F8000011C123121605A7E4042013A531E9A419F
:100F9000131C0B3363601523034023815242142337
:100FA0001340962063814900000102F08BFDF0237D
:100FB0005B006361C8239B00E0602061A36110BDFA
:100FC00088020020C00000202E0C0020C80B00204A
:100FD00010B50C490D230022A02458006400425291
:100FE0001819400042520748013BF5D21323002252
:100FF000591E06D3044C5B01C2521B191A800B1CEC
:10100000F6E710BD000800401A08004000B5144B78
:10101000144A18781449154B002802D01220095E92
:1010200001E00E20095E181C4130007848431C2165
:10103000595683118B4200DA0B1C1360094B1A6856
:101040008023DB05196B12050903090B1143196392
:10105000186B110B064A02400A431A6300BDC046D2
:10106000050400202C0E0020A403002046100020C0
:10107000FF00F0FF30B5039C002A04D18C225242BD
:101080006243D21106E0012A06D11922524262437C
:10109000D211A21802601CE0022A03D106226500C8
:1010A000624306E0092A07D1A200E500A21A2D1921
:1010B0005200D211AA18EDE7151C65430A2A01D186
:1010C000192202E00B2A03D18C226243D211AD18FF
:1010D0000560002B04D18C235B425C43E4111AE0D1
:1010E000012B03D119236343DB1113E0022B02D13F
:1010F000630006220CE0102B04D1A2002301A41AE5
:10110000640006E0112B08D1230119221B19524259
:101110005443E4111C190C6008E01A1C6243122BA2
:1011200003D18C235C43E41112190A6030BDF0B581
:10113000822293B000215200D74802F063FDD74CC1
:101140008E22002152000E25201C02F05BFD04952A
:101150007F21FF22281C0138C0B2031C38339B00BA
:10116000E31899711971DA715A710028F3D104905A
:101170006E461020CA4B865B1E83CA4B9A680A2AA9
:1011800001DC01329A60DA68002A01DD013ADA6096
:101190001A68112A01DC01321A605A68002A01DD3E
:1011A000013A5A60BF4B00249D6816236B43059497
:1011B0000A93C2E11C68B7E1631C691CBA4A1B01AF
:1011C0005B18995CB94A481E0F1C0D2876D80A9EF8
:1011D000B7485B003018059E80190019C175D35AB5
:1011E000684683819EB2AE4B1A8B01321A83B14B93
:1011F0001B78002B06D10FA810A92A1C231C0096CF
:10120000FFF738FFAB4B013FFFB21978A34BBA0091
:101210009A1800290AD150680F99411851603A1C58
:101220000E3292009B185968109A0BE0311C6943EA
:101230005068411851603A1C0E3292009B18321CC3
:10124000624359688A185A603A1C944B0E32D20095
:101250009A18918804207118918051890C3151811C
:101260003A1C3832910059180856854200DA0D713F
:1012700092009A18052151568D4200DD5571391C96
:1012800038318A009B1806229A56944200DA9C71E3
:10129000824A8B00D318072159568C4200DDDC713D
:1012A0000E37FF00D2190621535EB34200DB3AE14C
:1012B0006B469B895472D380157234E15B00D35A1C
:1012C0000393002B00D12EE17B48002311930426C9
:1012D000844611AA013EF6B263467848995D835D63
:1012E000091949B25B1901315BB209016E4801333A
:1012F000CB18C15C0023C8B2471E0D2F03D909E0EB
:101300000133DBB200E040B2D75C002F01D087424E
:10131000F6D1D154002EDDD1331C11AA9A5CDFB274
:10132000002A04D00133042BF7D11F1C02E0002F48
:1013300000D1F8E05E4B0A99059ACB189B183A1C2D
:101340001B190F32DA755B4B1B78002B07D1039BFF
:101350000FA8009310A92A1C231CFFF78BFE391C31
:101360000F9802F0AFFB391C0790109802F0AAFB0F
:10137000391C0890039802F0A5FB011C021C69436C
:10138000624343420B910C9200217A1E0D93069109
:101390000992424B02903CE08A5D501E454A11780A
:1013A00042B200290FD19100591848688446079825
:1013B000844460464860111C0E3189005918486801
:1013C000844608980EE091005918486884460B98A6
:1013D000844460464860111C0E31890059184868E1
:1013E00084460C988444604648600E322B49D200F3
:1013F0008A18918802980136411891803049F6B2D6
:10140000C95D8C4651896144518106990D9A8918AC
:101410000691069803994218099811A98642BBDBE8
:101420008B5D2449013B08785BB21C4900280ED132
:10143000980008184668B446079EB444664646605D
:10144000181C0E30800009184868089E11E0161C10
:101450006E439800081803964668B446039EB44449
:1014600066464660181C0E3080000918101C604348
:101470004E68301848600E330849DB00CB18998855
:10148000A44652189A800E4AD15D5A898A185A8108
:101490000121002343E0C0461C050020480600202F
:1014A000A4030020B8120020000200400004004005
:1014B000111300200B040020C43C0000C83C0000B5
:1014C000390000204420C0186E46845D601E039CD5
:1014D000C0B20690A05C461E0698F6B2B04206D294
:1014E00014244443A619554C0120A05508E01420AB
:1014F0004643069C514836190696069C0126065519
:10150000013205E04CB211AE361900220396079461
:10151000079C1019B842D5DB01310133C9B2099ECD
:10152000B342EFDB6446013C454B5B689C4200DB09
:1015300042E6059C013D163C0594414BDA68954214
:1015400000DB37E600252E1C3E483418271C743774
:1015500000217B5E002B3CD07A3420880C2102F0E5
:1015600063FA384A2080AC180023FF5E6068391C9B
:10157000C00102F0A7FA6060E06B391CC00102F004
:10158000A1FA231CE063E5331A7851B20A2901DC81
:1015900001321A70231CE4331A7851B2002901DD9C
:1015A000013A1A70231CE7331A7851B2112901DC71
:1015B00001321A70E63423785AB2002A01DD013B69
:1015C0002370049B08360133DBB2049304350E2BE1
:1015D000BAD11C4B049C1C481C601C4B1A781C4B39
:1015E000191C37331E7836310F780368B4461EE075
:1015F000013AD2B2174D5100695A0EB2F643F617AE
:101600000E40111D4900B5B20E52002D0FD0124EE2
:101610002DB28E5F002E04DCBD4207DA00250D528C
:1016200005E0654502DA00260E5200E00133002A8B
:10163000DED1054A13B01360F0BDC0461C05002082
:10164000B812002048060020D8000020E80B002037
:101650004610002042100020CC000020F0B5A64C1F
:10166000431C8FB0DBB20A932368071C0E37013B83
:101670002360FB00E318039202930897051C0420E3
:101680001F5E0E1C05970F1C0E37FB00E31804931A
:10169000099704201F5E05980697C71907978B00C6
:1016A000AF00E719E3187868059A5B68069950431C
:1016B0004B430799181802F005FA00B27860089BAE
:1016C00009989F008300E719E3187868059A5B681A
:1016D000069950434B430799181802F0F3F900B2EA
:1016E0007860281C383080002018039904220430C8
:1016F00002F04AFA049FFB88029F1AB20621795E23
:10170000914209DA029FFB80049F7B7A029F7B72E1
:10171000049F3B7A029F3B722A1C331C0E320E330D
:10172000D200DB00E318A4189988A2888A18A28046
:10173000598962898A18F1B2481C40B2029014207B
:1017400068436281029C002220189A800490131C36
:1017500006910EE0142474430499A4467818029963
:101760008C446744C15CFC5C2143C1540020F854A4
:1017700001330132069CD2B2101940B25F4F0D28DE
:10178000E8DD14206843BA190023C71911E0AB4201
:1017900005DA911B4C5D10782043485505E0AB42BB
:1017A00003DD1078F95C0143F95400211170013315
:1017B0001432B342EBDB039F68463F781021049755
:1017C00008561627079047430022AC465EE0039C6C
:1017D0000020A1784A4C4DB27B191B1908950D9336
:1017E0004CE0089B0D9CC31824180993E37D079DCA
:1017F000013B5519DBB20B95029405936D461424F9
:1018000063570F2B37DD0023012506936D42042318
:101810000092013B3B4CDBB2E4563B4A0C94D2565F
:101820000B9CA418013416226243354CA418099A63
:10183000A2180C9C019214190C946478013CE4B237
:101840000D2C0DD864B2644501D0B44208D16A1C95
:1018500002D0A54202D103E0251C01E00124069438
:10186000002BD6D1069D009A002D04D06B4614247F
:10187000E45C029BDC750131C9B20130039D032495
:101880002C574BB29C42ACDA013216370498039CB9
:101890000121131861565BB2994298DA237800202F
:1018A0005DB201351624AC461EE0039D67463A182A
:1018B000A97862434DB20135AA18114D52190AE0B8
:1018C0001578013D6DB2B54202D10AAF3F7817706D
:1018D0000131C9B20132039D0327EF574DB2AF4228
:1018E000EEDA0133DBB20130039F012179565AB29F
:1018F0009142DADA0FB0F0BD480600201C05002046
:1019000011130020C43C0000C83C000010B50B7847
:10191000002404575AB2944200DD03704B7801242E
:1019200004575AB2944200DA43708B780224045769
:101930005AB2944200DD8370CB78032141565AB2EB
:10194000914200DAC37010BDF0B58BB00024231CA7
:101950000E333C48DB00C31804215A5E002A6BD0CA
:101960005A7A02921B7A16221F1C013F7A43039374
:10197000354BD3180193029B01331801059307904F
:1019800055E0029E013E4BE00198172583195D57F3
:101990007A1C013D711C0D2D41D8AC423FD009018C
:1019A00088182A4B00914000C05A0690201C0E3027
:1019B000C1002448844661440620095E2448408DC5
:1019C0008446069881422ADC60464143881100998A
:1019D0008C4604998C4461464900C95A88421EDAF3
:1019E00007998A185200D35A984218DAA54202DAA7
:1019F000231C2C1C1D1C2A1C124B3832211C92004B
:101A000038319A1889005268C918043109A8099216
:101A1000FFF77CFF201C291C09AAFFF71FFE0236D6
:101A2000059A9642B0DD019B02372C33019303984F
:101A3000013004908742A4DD01340D2C87DD0BB00A
:101A4000F0BDC046480600201113002000040040ED
:101A500046100020F0B5CC4B9FB01A68CB4B012A42
:101A600009D1CB4A1268012A05DD9E8C0C96DE8CCA
:101A700009961B8D04E0DE8B0C961E8C09965B8C00
:101A80000D930D247CE114236343C24E5B199B5DCF
:101A9000002B00D16EE1BE4EA700AB00F719F31882
:101AA0007A6803935B68201CD31A0E300A93291CB2
:101AB0008300F3180E3105938B00F31806930490FE
:101AC000059B06985A6843680291D31A0A99D81759
:101AD000CA170B931B1889184340514008932B1CBD
:101AE00007913833211C9B003831F31889005B685B
:101AF000891904311DA81D93FFF708FF0299786822
:101B0000CB001790F31804215A5E04990292CB007F
:101B1000039AF6185768029B0422B65E0299F318DE
:101B20000393331C7B4348430399C01801F0CAFF59
:101B3000059A1890069853680299199747681A935E
:101B40007E434B430399981901F0BCFF0C221B9074
:101B5000002114A81C9702F055F875226A441278E7
:101B6000762352B210926B441B7877265BB21193A6
:101B70006E4436781DA876B2129600228256162040
:101B8000571C4243844B0026D31805961393B5E0A7
:101B9000069EF6010E96119EA5E01398059943182E
:101BA0009B199B7D5BB20393013B0D2B42DD002013
:101BB00001214942844604230196013B774ADBB266
:101BC000D256774E0492F656069A9219013216268C
:101BD0005643714A9219029E9619049A0F96B218AA
:101BE0000492527852B2013A0D2A0ED8AA4201D07C
:101BF000A24204D14E1C04D0914204D105E0012040
:101C000003E0111C01E001229446002BD5D1019E76
:101C1000013168D03201D219624B5200002813D032
:101C20006046002810D10399985A0F3901F04AFFF5
:101C300003900BE0002B56DBAB4201D0A34252D104
:101C40003201D219574B5200D35A039303990029FA
:101C500049D0029A0323D2010F920293029B079963
:101C6000013BDBB2089A98000293049091420FDD89
:101C70001AAB18580F990B9A401A50430A9901F061
:101C800021FF049A17A98B58C0180E9BC01A0FE0A9
:101C9000049A17A988580E9B0A99C01A48430B99B1
:101CA00001F010FF04991AAA53580F9AC018801A0D
:101CB000C317C01858407F2812DC02998B0080217E
:101CC0000A1A039850214243D211C91804926A4655
:101CD0008858049984460A1C6244503368461A5056
:101CE00002990029BAD10136129B721E02929A42C1
:101CF00000DC52E7059E01371636059610987E1EC9
:101D00000696864200DC43E7169B149E9E4200DD49
:101D10001E1C0799089A244F91420ADD900101F098
:101D2000D1FE3F2800DD3F203B5C2D21C81A0C9AD4
:101D30000BE0079B0899980101F0C4FE3F2800DDE5
:101D40003F203B5C2D210D9AC81A5043099A5343FA
:101D5000C01801F0B7FE7043159B8012834209DD65
:101D6000A54202DA231C2C1C1D1C201C291C1DAAA8
:101D7000FFF774FC01350E2D00D084E6002C15D041
:101D8000251C013C7FE6C0460413002046100020BD
:101D9000480600201C05002011130020C43C000050
:101DA000C83C000000040040843C0000014B1FB010
:101DB0001B68F0BD34000020F7B5012149420F2215
:101DC0001C4801F01FFFFFF7BFFDFFF743FE1A4C51
:101DD0000023261C2360743601931F1C1D1C002148
:101DE000725EFBB2002A1DDD226801322260114AB8
:101DF000D5559D4214D00199AA000B195968A21813
:101E0000281C51600E30DA6B8300C000E3182018E4
:101E10005A600430311C082201F0B6FE00233380E2
:101E20000135EDB2019A01370432083601920E2FC6
:101E3000D5D1F7BD64070020480600204943404340
:101E400040187047F0B5944B85B01B78E020002B0C
:101E500001D0800200E04002904A914B118B198022
:101E6000528A5A808F4B0022191C94310A80191C07
:101E70009A310A80191C8C310A80191C92310A800F
:101E8000191C84310A80191C8A310A80191C7C3182
:101E90000A80191C82310A80191C74310A80191CAD
:101EA0007A310A80804A1168021C884200DD0A1CCF
:101EB00001211A6049420E227C4801F0A3FE7C48B1
:101EC000FF21382201F09EFE774B00241B6803930C
:101ED000784D2B5D002B3ED0774EA300F758774B03
:101EE000E02062003F0140020126D3183F187642ED
:101EF000002502931FE02B1C0E336B49DA008A1871
:101F00000420125E002A14D0AA008A180299506890
:101F10008A889B00801A644A00B2D318029A5968D2
:101F2000138BC91A09B2FFF789FFB84201DA2E1CD8
:101F3000071C0135EDB2039B9D42DCDB751C0AD00A
:101F40005A4B5B499857B200013002D08858B842CA
:101F500001DD8F509C550134052CB9D10023524A24
:101F6000504934E0514EF05C44B201342DD09C0015
:101F7000C0B2161987007668CD196E601D1C0E352B
:101F80000195AD00AC46061C94440E36654602979A
:101F90000394B7006C68CF197C60019FF600FD00C8
:101FA0008E1955190436043590CD90C61D1C383550
:101FB000AD00383055196D68800008184560039CE5
:101FC0003B48029D20583C4EA8510133DBB21068BB
:101FD0008342C7DB0023344C324949E0334FFA5681
:101FE000013243D11A1C0E32D200A2180420125E14
:101FF000002A3BD02F480022865CD5B2002E32D179
:10200000D600761874360027F65F002E2BD12748AD
:102010009E00C55424489500861976684D196E6057
:102020001D1C0E350395204EAD00AC46101CB4446B
:102030000E30664675688700CF197D60039FC50026
:102040001948FE0086194D190435043681CE81C524
:102050001D1C3835144EAD0038327019920040689E
:102060008A18506002E00132052AC5D10133DBB283
:1020700022689342B2DB124B0C491C1C0E34FF2029
:102080001A78042A02D88A5C1A7000E018700133AA
:10209000A342F5D105B0F0BD05040020A403002043
:1020A00064140020880200204806002081070020D8
:1020B000CC12002010010020E8000020EC0B0020D2
:1020C00064070020F0B52548254A26490523013B31
:1020D000DBB21D1C0E35EC0007190426BF5F002F74
:1020E0001CD014190426A45F002C17D09F00D4190B
:1020F000C71964687F685E00E71B7F103C19AD005C
:102100008F19BC805419451964686D681F1C651BC4
:102110000C376D107F002C19CC530EE09D00551923
:102120006D685C000C19A5801D1C0E35AD001C1CD3
:1021300055190C346D6864000D531D1C084C0E3588
:10214000ED0065190426AD5F074E6F1EBD41F554C5
:10215000002BBCD12268034B1A60F0BD5C0100204B
:1021600088020020EC0B00201001002008B500219F
:102170000A220B4801F046FD0A4B0022191C94313B
:102180000A80191C8C310A80191C84310A80191CA0
:102190007C310A80191C74310A801A6008BDC0465F
:1021A0007C02002088020020034B012252425A6028
:1021B00000221A609A607047D800002008B5FFF727
:1021C000D5FFFFF7F1FF08BD38B51B4A00231B4CB4
:1021D0005360191C0522013AD2B2101C0E30C00007
:1021E00020184089251C0918834200DA031C002AA4
:1021F000F1D113482C6801600F4843601148002C4E
:102200000FDD114A141DE48FA14203DB911DC98F1C
:102210008B4203DA0832D28F934206DB012303702C
:1022200003E00A4B027001221A70064B1B78002B48
:1022300001D0FFF7C3FF38BD34060020880200201C
:102240005C140020E4000020461000203000002034
:1022500038B559435043D418651040184019211C13
:1022600001F030FC38BDF0B5AA49AB4A0B1C3E3337
:102270001F780B1C5A331B7852688BB053439B1149
:102280008E8EA64D01933224085F2A6805230290A2
:10229000013BDBB2181C0E30C000281881880029D1
:1022A0002CD09F4C09B2E45C002C02D064B2BC423A
:1022B00017DA0298814208DB191C0E31974CC900CD
:1022C000611849890198814218DA181C93490E3027
:1022D000C00008180021C180418181809C00914884
:1022E0000AE034B2A14209DA0021C1804181818033
:1022F000980084468B4864462150013A002BC7D190
:102300008949864D0A602B600524013CE4B2271CF4
:102310000E37FE000896AE190196B6880296002E7A
:1023200000D184E07E4E335D804E5AB236780396FB
:10233000B24203DA7A4F01333B554EE07C48A600A7
:102340007B498319BF005868CB195B68AE190493A9
:102350002B687168EF197A6801332B600B1A0592AC
:10236000DA179B1853409C46049A059B9B1ADA1770
:102370009B18534063440693664B3A229B5E1A1C9B
:102380000793069BFFF764FF079A09900599069B40
:102390000498FFF75DFF099B7860736064485D4EA9
:1023A00008993C27F75F46180422B05E6B46082266
:1023B000D15E431ADA179B1853403A1CFFF748FFC7
:1023C000019B3A1C988070895989431ADE179B1922
:1023D0007340FFF73DFF019F7881554A4F4BA100A5
:1023E000501859184968261C0E364160B100501823
:1023F00059184968F600416091199E19B4460420A5
:10240000844402960431664681CE81C1211C383154
:1024100089005B185B6852185360414B039E1B5741
:10242000B34209DA0123029F5B42BB8004E06E469F
:102430000827BF5D3A4E3755002C00D065E7374876
:102440003B4905680A683B4B954227DA1A68013216
:102450001A60002A1DDD021C1C60943212880B1CBD
:1024600094331A80021C8C3212880B1C8C331A8015
:10247000021C843212880B1C84331A80021C7C32AA
:102480000B1C12887C331A807430038874310B80E3
:1024900005E08E22520001F077FB00E01C601F4B2C
:1024A00001251A68224B1B481A60234B00216D42FC
:1024B0005D6019603E300078204A0190AC46127889
:1024C0000E1C1F480D1C1AE0013AD2B2171D7F00E6
:1024D0000297DC5B002C0ED0815C019FB94205D2D3
:1024E00001318154029900245C5208E024B2013584
:1024F000A64202DB03E0845401E09446261C002A35
:10250000E2D1291C0F4A65465D6019600BB0E0CB33
:10251000E0C2F0BD461000203406002088020020F2
:1025200038100020E8000020041300208410002050
:102530005C01002078020020D8000020E80B002079
:10254000BD0B0020CC000020F8B5424D0368041CF0
:1025500069681801C31A5801C90101F0B3FA0A22C7
:10256000AE5E2968361826600823EF5EC8206368CF
:102570008000C901584301F0A5FA2A693F18676035
:102580003549964207DA0631CB7FB61A5E43B6115B
:10259000921922600CE0F0235B009E1B964207DA42
:1025A0000631C97FB61A4E43B61192199B1A2360A1
:1025B000EB6829499F4207DA0431CA7FFF1A574363
:1025C000BF11DB1963600CE0C8229200D71B9F4249
:1025D00007DA0531C97FFF1A4F43BF11DB19D21A41
:1025E00062601E4B1A781C4B002A04D01C22995E94
:1025F00022688A1A2260DA7F002A04D01A22995EA1
:1026000062688A1A62600133DB7F002B04D00022EB
:10261000A35E6268636022600F4A2168931CDB7FBF
:10262000101C994206DD0B4A5269D51AA94202DBF9
:10263000013AD31A2360C21C6168D37F994206DD38
:10264000044A9269D01A814202DB013AD31A6360CC
:10265000F8BDC046C80B00202E0C00200504002049
:10266000F0B5484E85B00524013CE4B2211C454A32
:102670000E31CB00D31804201B5E002B62DD201C22
:10268000414B1430400018180425405F002849DDF4
:102690003E4B1A5D3E4B002A01D13F3300E04033F0
:1026A0001F78A300F3185B6868460093231C0E3361
:1026B0009B00F3185B680193FFF746FF324D630000
:1026C000EB1804201B5E02A80293231C0C335B0052
:1026D0005B5F0393FFF738FF029B009A291CD31A14
:1026E000D8171B184340BB4207DA019A039BD31A41
:1026F000DA179B185340BB4224DBA200B218526881
:102700006300CB189A80221C0E329200231CB21850
:1027100052680C335B00EA521C4B1A5D002A11D13F
:1027200001220EE0A500551960006D681818890097
:1027300085805218201C52680C304000C252134B46
:1027400000221A55201C0F4A0E30211CC0000E4BCF
:10275000143110184900808859188880002C83D1C2
:1027600011680C4A19600C4B1C1CE0CCE0C2012221
:10277000002902D11A68531E9A41084B05B01A70FD
:10278000F0BDC046880200201C0100207C02002011
:1027900046100020C0000020D800002018040020AF
:1027A000EFF30880704700BA704740BA7047C0BA6C
:1027B00070471F234209184001238340181C024B15
:1027C0009200D0507047C04600E100E01F2342094C
:1027D000184001238340181C2032024B9200D05035
:1027E0007047C04600E100E01F2342091840012362
:1027F0008340181C6032024B9200D0507047C04694
:1028000000E100E070B5002816DAC0B20F230340E3
:10281000083B134A9B089B009B18032210409040E2
:10282000FF225D68141C84408901A5430A40824050
:10283000281C1043586011E003248208094B2040F3
:10284000C032A0409200FF24D558261C8640890142
:10285000B5430C408440281C2043D05070BDC04676
:1028600018ED00E000E100E08023DB051A6B1F217A
:102870008A4315210A431A635A6B0F218A430E219A
:102880000A435A63704700B58023DB051F2809DD22
:1028900020388140C9B2197601238340D8B2084B51
:1028A00018700BE081405961032804DC8240054B1D
:1028B000D0B2D87702E0012282405A6200BDC04601
:1028C000280000400500004000B58023DB051F28DC
:1028D00004DD20388140C9B2197401E08140D9601B
:1028E00000BD00B51F2804DD064B2038DB7F034107
:1028F00003E08023DB05DB69C340181C012318407B
:10290000087000BD01000040064B3F20196880237D
:10291000DB0501390140044A586B090202400A43B1
:102920005A637047C00B0020FFC0FFFF8023DB0508
:10293000596B034A0A40802189000A435A63704751
:10294000FFC0FFFF8023DB0559690822114359614D
:10295000D9689143D96070478023DB055A69082103
:102960008A435A6170478023DB055A6908210A436C
:102970005A6170478023DB05586908231840434299
:102980005841704730B5A023DB051A680120824307
:102990001A601A6810218A431A601968214A802433
:1029A0000A40802109020A431A601A681E49E4009D
:1029B0000A4022431A601C688022120614431C60DD
:1029C0001D681A4C2C409025ED052C431C601924E1
:1029D0009C705C682043586058680140802040002B
:1029E00001435960586812490140C02080020143E8
:1029F000596058680F49014059605868802189051D
:102A0000014359605868802149050143596019689C
:102A10000A431A60C0468022596852040A435A6029
:102A200030BDC046FF0FFFFFFFF8FFFFFFFFFF8035
:102A3000FFFFF8FFFFFFFFFE38B5094B09495A7841
:102A4000DC785143084B051CC918084801F03AF8D6
:102A5000064B291C01345843A14001F033F838BD1E
:102A60001C0D002044FEFFFFFE24020040420F0028
:102A7000014B18707047C04602000020054B1968D2
:102A80008023DB05DA6B0902120E090A12060A43DB
:102A9000DA63704704000020014B18607047C0469D
:102AA00004000020024B1878434258417047C0464A
:102AB0000100002070B51349134B04241960134B17
:102AC000134D1A6822431A601A680224A2431A603E
:102AD0001A68012422430F4C1A60002222600E4A19
:102AE00011602E78ED7870430135E840091A1160C5
:102AF000206811688842FBD21A6801218A431A6053
:102B000070BDC046FFFFFF0014E000E010E000E0F1
:102B10001C0D002018E000E02806002001304300D2
:102B2000181840187047F0B58DB003AC0091071C21
:102B30000021201C242201F065F80C25013DEDB296
:102B4000234A281C0321565D00F0B2FF0C23CCB2AF
:102B50005C4376B203AA6B1C301C03211419019349
:102B600000F0B0FF019A40B2800023898240101C1F
:102B700018430123B3401E1C638820811E436680D6
:102B8000002DDBD103240C25009B013CE4B2002B7B
:102B900008D02B1C634303AAD3180E4A0121D25735
:102BA000914059602E1C664303AB9E197B1C211C6F
:102BB0007381381CFFF7B2FF6843074A311C801845
:102BC0000C2200F0E1FF002CDED10DB0F0BDC046BC
:102BD0000E4D0000F84C0000000C004010B5012024
:102BE00040420021FFF79FFF0024201C01210134F7
:102BF000FFF799FF132CF8D1201C0121FFF793FF59
:102C000010BD7047F0B587B003900F1C152500214B
:102C1000049100236A462A499382C97B013D49B247
:102C20006E1E02910C24013CE4B20095002D17D0D9
:102C30000023022F0FD0012F04D014226243214B16
:102C40009219D356162262431F499219525602997D
:102C500052187A439B18039A0F219B181940009130
:102C6000201C032100F024FF184BC9B24900019138
:102C70001857032100F026FF009A40B280008240DE
:102C8000101C019A04A9535A18430B1CD052002C53
:102C9000C9D10324013CE4B2211C301CFFF73EFFE4
:102CA0000C21484363006A4610339B5A0849425A34
:102CB0004352002CEED1002DA9D107B0F0BDC04683
:102CC00046100020240D0020214D00000E4D000074
:102CD000000C004070B5274A8023DB05147C9D68FA
:102CE000072125480C4024032840204398609C6815
:102CF000224820409860947A03209D680440204830
:102D00002404284020439860547A3F209D68044062
:102D10001C48A404284020439860107A9C68014015
:102D200008061949214001439960986880210905E6
:102D30000143164899600488191C38310C70857855
:102D40009E6B7F21124C0D4034402D022C439C631E
:102D500004799D6B0F480C4028402404204398635D
:102D60009279986B11400A060B490140114399630F
:102D700070BDC04646100020FF8FFFFFFF7FFFFFA2
:102D8000FFFFFCFFFFFF03FFFFFFFFF82C06002003
:102D9000FF80FFFFFFFF80FFFFFFFF8070B58023F4
:102DA000DB0559684D4A0A405A6004225A625A614A
:102DB000C046C046D969114201D04D2103E0D9690E
:102DC000114202D14621464A117000223F205A6228
:102DD0009A62DA601A6158619A61424A0124507815
:102DE00080211871D0785D6804403F48A4072840CE
:102DF00020435860107903245D6804403B48240751
:102E000028402043586055790F205E68384C0540B3
:102E10002D0434402C435C609579364C5E68054047
:102E20002D0634402C435C60D2795C68104002056A
:102E30003148C905204010435860304B8A681B7DDB
:102E4000002B03D080231B01134301E02C4B1340C4
:102E500080248B60E405FFF73DFF236B60229343E2
:102E60002363236B8022134323630025FFF7FCFCBD
:102E7000FFF788FDFFF7B2FE281C65700221FFF7FF
:102E8000C1FC291C0120FFF7BDFC02200121FFF736
:102E9000B9FC0320011CFFF7B5FC04200321FFF758
:102EA000B1FC02210520FFF7ADFC281CFFF781FCD7
:102EB0000120FFF77EFC0220FFF77BFC0320FFF7D9
:102EC00078FC0420FFF775FC0E4B04215D600E4B6F
:102ED0001A690A431A6162B670BDC046FFFEFFFF61
:102EE0003E0000201C0D0020FFFFFFBFFFFFFFCFB3
:102EF000FFFFF0FFFFFFFFF0FFFF0FFF2E0C002092
:102F0000FFF7FFFFFCE100E000ED00E000B58021ED
:102F1000C9050B795A1E984209DD01E0DAB20A713F
:102F200001338342FADD04E0D3B20B71013A8242ED
:102F3000FADA00BD08B50C4A0C4B0D4901E001CA94
:102F400001C38B42FBD30B4B0B49002200E004C3AF
:102F50008B42FCD3FFF724FC084B002200E004C3A3
:102F60008342FCD308BDC046CC3C000000000020DA
:102F70004400002044000020DC1400200C16002037
:102F8000F7B5284B00241C70211C3022264800F085
:102F900039FE264B264A1C7001231370254A201C3B
:102FA0001370254BD9790C23013BDBB2234E5D1CFA
:102FB0006A00945B14265E43214F5A000C41D4539F
:102FC000019613229C46013AD2B2531C1B011B4F9F
:102FD0005B195B00FE5A019F0E41BB18194F9B0005
:102FE000DE51A61B8019002AEDD16346002BDBD1F0
:102FF000114B154DDE8D002E02D140232B600BE0CE
:10300000E42100F05FFDB601011C301C00F05AFD08
:103010006E2800DD6E2028600C4B00221A605A607A
:10302000F7BDC0467A070020A8140020C81200206F
:10303000C60B00200E1300204610002000080040A0
:103040008C14002090070020E40B00203C06002098
:10305000044A00231370044A1370044A1370044A8C
:10306000137070472C0C0020BC0B00200C130020A8
:1030700010130020F0B59C4B9FB01C78002C00D0A2
:103080003EE29A489A4A037884461078591C421CBA
:103090001201984F52185200D65B974D974A59002B
:1030A000895AEA79012716418A1B95492E1C0A8004
:1030B0005236368854354E802D8836B28D8006972C
:1030C0006146B24207DC6F462DB23E7EAA4200DB6B
:1030D000261CF6B206960133DBB20B700B2B08D917
:1030E0000130834B0022C0B20A701870122800D938
:1030F0001A708449002284484A600A608A83CA821E
:103100004A83CA81FF238A608A817B490260826088
:103110004360C360C87918271190119C7B48161C26
:10312000204115907A484D78006816951790794897
:1031300000781890081C393000781990764800788B
:103140001A90CF571C20139708561B90497E0A925D
:1031500049B2149104920B9205930C920D930E9226
:103160000F921092099207920C21FDE0039809E05A
:1031700016234B4314274F43684C00251B19281C6A
:103180001C931D97441C1C9F03944B1C0893002404
:103190003B18039FDC75089C3B011B19554F5B00D6
:1031A000FC5A119B159F1C413C1BE343DB171C4041
:1031B000169B002B07D05A4B1D9FFB181B5C5C43D2
:1031C000179B5C432413574B50279C46189B002B9E
:1031D00010D14F43800067443B58089010B21B1B2E
:1031E000984200DA9AB230B2984200DD9EB2089B53
:1031F000FC50B4E04F43BC4463468700DF594A4B60
:103200007F11BC4628274F43FB1802935F5F12973C
:1032100067463B1B199F002F0AD063001B19129FA2
:1032200001936446E31B019C6746E3189B10FB1A5D
:103230001A9C002C05D0129FFC18029F64107C532E
:1032400001E0029C6353029F6C467F5B0297082754
:103250003C5F079F12943F190797129F14B2BC421C
:1032600002DA6C4608273A5B34B2A4466C4608344E
:103270000027E75F92B2BC4502DD6F460824E65B9B
:10328000B6B2002B52DB132B03DD099FFC18A4B24E
:103290000994139CA34203DB0A9F1C1B3F190A9746
:1032A0006F46103700243C5FA34201DB9CB20494BC
:1032B0001B9FBB420FDB0B9C8C4200DA0B91059FDE
:1032C0008F4200DD05910C9C844200DA0C900D9F2A
:1032D000874200DD0D90039C089F2001C019054C1A
:1032E0009BB2400023523AE02C0C0020CC0300207B
:1032F000CD03002000080040461000208C14002060
:1033000064140020A4030020B8120020FFFF000076
:10331000E40B00207A070020050400201113002090
:103320006B4E000090070020AE1000200E9F1498F6
:10333000FF1A0E97834203DC0F9C181A24180F946F
:1033400010AF0020385E834201DC9BB210930398DB
:10335000089C03011B196B4F5B000020F852039B74
:103360000235132B00D001E70139C9B2FF2900D083
:10337000FEE624276D46644C7D5B0A9F634B276005
:103380000B9F6283684610229F60A5810D9F155A8E
:1033900005980C9AD8601A605F6010AB1B880F9A72
:1033A0000E98E3825A4BE5810027D95FA0606260E6
:1033B000A683079800F086FB564BE0839B7E2DB2D8
:1033C000DA0FE8179D425041534B54491B7808705F
:1033D000534A002B09D1069C002C06D001230B7008
:1033E00050485149037013700B701178002900D0B8
:1033F00086E0484A4D4BD579101C04955630002480
:10340000075F101C059758300027C55F1B7806958D
:1034100050780790927E581E0892454A44001268E0
:10342000A4460992434A444C1278800003926444B3
:103430003C4A8446039F41480B94604416787C4282
:103440007C41364A644215780A94374A0B9C1278BC
:103450000C94AC463FE03A4D013BEC56394DEF56EB
:10346000651C01373F017F1903977D00254F7F5B66
:10347000354D039767007C5B049D039F2F41264DCC
:10348000BFB22D78E71B002D09D1059CA74202DCB5
:10349000069DAF4203DA0122111C9446161C079CBC
:1034A000BFB2002C04D0294DED5C6F43BF11BFB2F9
:1034B0000568089C6D11ED1BADB22FB2A74200DB71
:1034C0000121099F002F01DD0A9C25400C9C043836
:1034D0002580023C0C94002BBDD112486546067035
:1034E0000E4805700E4801700F490A701A1CA0257D
:1034F00001336D005919034F49007A520C2BF6D154
:103500001FB0F0BD00080040A4030020B812002046
:10351000C40B00204610002011040020BC0B00202A
:103520000C13002010130020EC030020E80B0020F7
:103530005C01002005040020421000203C06002011
:103540001F4D00001D4D00008C1400206F4F000027
:10355000F7B50F4B0F4A104FD9790C23013BDBB263
:103560005C1C6400145B451C07D15E0001960C4195
:10357000261C0A4D019C665307E0A44614245C43B4
:1035800065462418A4000D41E551002BE6D1F7BD96
:103590004610002000080040900700208C140020F6
:1035A000F7B51D4B0025DE798C460C23013BDBB2C1
:1035B000411C03D1194A5900895A05E01421594385
:1035C000174C09188900615A5C1C164A6400A75AF6
:1035D0003741C91BCF17C91979406D18411C0DD14E
:1035E000A15A5A003141019200916F463A880B4925
:1035F000019F7A520B4F0021E15308E00949675AB5
:1036000014245C4306492418A40037416750002B5A
:10361000CCD161460D60F7BD461000208C1400200F
:103620009007002000080040F7B5804B1B78002B66
:103630002BD07F4B7F4E18787F4B44B219685B6864
:10364000A200CB189351411C0023271CC9B21A1C9D
:103650000C37A51A00D5BD1AAD00AD595B190D1C6C
:103660000B2901D90C3DEDB2AD0075590131013284
:103670005B1BC9B2062AECD101306D4AC0B2107092
:1036800040B20B2801DD002111706C4A1278002A2B
:1036900000D0CAE06A4A1420115E8B4202DA694BFC
:1036A0000121197064491A23C85E1C240B5F917DA7
:1036B000C31A8B4206DC644B1A7851B201320229DC
:1036C00005DD05E0D27D934202DB5F4B00221A70DC
:1036D0005C49564B0A78002A43D05B4A1278002A8C
:1036E00004D1187800283CD00A703AE0032A38D177
:1036F0001C780C21554A1AE014254D431323013B35
:10370000DBB2002C08D1EE18B700D059760040018A
:10371000D0514F4FBC5308E0EF184D48BE007F001A
:10372000C75F90597F01C71B9751002BE7D1013923
:10373000E2D23E4A00231178994205D10123137049
:1037400008E05818026301E03A491A1C043B1C1CAB
:103750003434F6D13B4B00221A703E4B01221A70D2
:1037600063E01A783C4B002A06D13A4A01211170D5
:103770001A6852181A6058E000221A60374B334A10
:103780001F782D4B1E269B5FD91758184840019073
:103790000C2120E014254D431323013BDBB2002F05
:1037A00008D0EE18B0007400294E345F1658341B50
:1037B00014500EE0E818264C86004000205A04B24F
:1037C000072C00DD0720019C00B2A0409459201A6C
:1037D0009051002BE1D10139C9B2FF29DAD1184B40
:1037E000DC7E1E4B1B78002B01D164B200E01C4C28
:1037F0001C4B1B78002B18D11B4B1C4A1B781C48F8
:1038000011E0013BDBB29D00A958002903D05E0006
:10381000865FA64204DA5E00865F9D00760100E0C6
:103820007600891BA950002BEBD1F7BD7A07002049
:10383000C8120020A8140020A4030020BC0B002004
:10384000461000200E130020C60B00209007002019
:10385000AE10002010130020E40300200504002017
:10386000D4FEFFFF0C130020E80B00203C060020D4
:103870004210002010B507495C22074800F084F987
:10388000064C0749201C382200F07EF9A27B054B2C
:103890001A6010BD404C0000461000202E0C002085
:1038A000084C00006014002008B50449044B414353
:1038B0000448C91800F006F9C0B208BD44FEFFFF75
:1038C000FE24020040420F0010B5284B0022DA709F
:1038D000274902221A718978914208D004290ED111
:1038E000B0219970052159710121997106E0F122E9
:1038F0009A7003225A7104229A710522DA711D4BC3
:103900001B78AA2B2BD11C4B1C4A1B78127858B25F
:1039100051B240181A49097849B240181949097832
:1039200049B288421BD112488178022905D0043956
:103930004A42514149420B4000E0131C0B4A4C30B3
:103940009478017858B220184018FF2803DDC94345
:10395000C9B2917003E09178CB18DBB29370034C3D
:10396000A078FFF7A1FF207010BDC0461C0D0020FD
:10397000461000200001E0000101E0000201E0002B
:103980000301E0000401E00038B5124C124D237829
:10399000FA209A00D3189B10DBB22B80237880008A
:1039A00058430E4B9988C90000F08CF8C1B2698069
:1039B000237823205843C90000F084F8084B0222E2
:1039C0001A70084BE4221A80074BC0B23F22A8802D
:1039D0001A6038BD1C0D00202C0600204610002067
:1039E000E80B0020C40B0020C00B0020704710B56E
:1039F0001C1C029B88420ADB904207DA1B1B401A00
:103A00005843511A00F05EF8241800E01C1C201CDA
:103A100010BDC04602B4714649084900095C49001E
:103A20008E4402BC7047C046002934D001230022D6
:103A300010B488422CD301242407A14204D281422D
:103A400002D209011B01F8E7E400A14204D281423D
:103A500002D249005B00F8E7884201D3401A1A43BA
:103A60004C08A04202D3001B5C0822438C08A042F1
:103A700002D3001B9C082243CC08A04202D3001BA7
:103A8000DC082243002803D01B0901D00909E3E721
:103A9000101C10BC7047002801D00020C04307B4A0
:103AA000024802A14018029003BDC046D9000000A0
:103AB0000029F0D003B5FFF7B9FF0EBC4243891AC5
:103AC0001847C046002941D010B4041C4C40A446FD
:103AD00001230022002900D54942002800D5404298
:103AE00088422CD301242407A14204D2814202D26D
:103AF00009011B01F8E7E400A14204D2814202D28D
:103B000049005B00F8E7884201D3401A1A434C0889
:103B1000A04202D3001B5C0822438C08A04202D3BF
:103B2000001B9C082243CC08A04202D3001BDC08E7
:103B30002243002803D01B0901D00909E3E7101C28
:103B40006446002C00D5404210BC7047002806D0C7
:103B500003DB0020C043400801E08020000607B4DA
:103B6000024802A14018029003BDC046190000009F
:103B70000029EBD003B5FFF7A7FF0EBC4243891A1B
:103B80001847C0467047C046F0B5051C0F2A2FD90C
:103B90000B1C0343051C9C072CD10C1C031C151C7F
:103BA0002668103D1E6066685E60A6689E60E668D6
:103BB0001034DE6010330F2DF2D8131C103B1B099C
:103BC00001331B01C518C9180F231A40032A0FD946
:103BD0000E1C2C1C131C80CE043B80C4032BFAD873
:103BE000131F9B0801339B0003242240C918ED18C2
:103BF000002A05D00023CC5CEC5401339342FAD167
:103C0000F0BDC04670B5830742D0002A3FD0013ACC
:103C1000CEB2031C032503E0541E002A37D0221C19
:103C20001E7001332B42F7D1032A28D9FF250D40FE
:103C30002C0225432C0425430F2A13D91C1C161CC7
:103C4000103E25606560A560E56010340F2EF7D842
:103C5000141C103C2409013424011B190F24224098
:103C6000032A0CD91E1C141C043C20C6032CFBD8B0
:103C7000141FA4080134A40003252A401B19002A9C
:103C800005D0C9B2013A19700133002AFAD170BDCA
:103C9000031CC9E700010203040405060708090A1A
:103CA0000B0B0C0D0E0F1011111213141515161706
:103CB0001818191A1B1B1C1D1D1E1F1F2021212235
:103CC000232324242525262727282829292A2A2B87
:103CD0002B2C2C2DFF00000100FF01000000000034
:103CE00000000000000000000000000000000000D4
:103CF00000000000000000000000000000000000C4
:103D000000000000FF000000660C002001FF03021D
:103D10000104000444000C060403410001000000FB
:103D2000FFFFFFFFFFFFFFFFFFFFFFFFFFFFFFFFA3
:103D3000FFFFFFFFFFFFFFFFFFFFFFFFFFFFFFFF93
:103D4000FFFFFFFFFFFFFFFFFFFFFFFFFFFFFFFF83
:103D5000FFFFFFFFFFFFFFFFFFFFFFFFFFFFFFFF73
:10400000FFFFFFFFFFFFFFFFFFFFFFFFFFFFFF447B
:104010004D3148535052343400B5002802D00128A5
:1040200015D102E00A4A0B4B10E00B4A0B4B1A6009
:104030000B4A0C4B1A600C4A0C4B1A600C4A0D4B85
:104040001A600D4A0D4B1A600D4A0E4B1A6000BDE6
:1040500035410000240600200943000058000020DC
:104060006546000054000020B546000018000020FE
:10407000354A0000140000207143000010000020A9
:10408000D14000000C00002070B5114B114A1C6893
:1040900011688C4218D01B6816680F4ADBB215688D
:1040A000F6B206240F210130221C5A43AA181278B6
:1040B0000A40824209D05A1CD2B21D3BDBB21D2AF3
:1040C00000D8131CB342EFD1044B18B270BDC046E8
:1040D00064000020600000202C000020FFFF000092
:1040E00008B5124B1B88DBB2AF2B1BD0B22B19D0FB
:1040F000102B19D1FEF737FC0D4A002313600D4A2F
:1041000011680D4A1268914202D108E0C04600E0F1
:104110000A4B013B002BF9D1FEF71EFC04E0084AD4
:10412000136001E0FEF71FFC08BDC0461C00002024
:10413000200000206400002060000020E90300004F
:10414000A4100020F0B5013885B0132800D9AAE0EA
:10415000FFF760FC0A13A91AA9A925A9A9A975A99D
:104160007AA9A9A9A9A990A4504B1A78504B1A7002
:10417000504B9A78504B1A7095E05048FEF79AFCD5
:104180004F4B00225A608EE04E4900230A689A4243
:1041900002DD4B68D318DB0F4B4A137083E04B4BA7
:1041A0001B78002B00D17EE0494B1B78002B7AD185
:1041B000484B494A0021585E373201901778022057
:1041C0001A5E464B02921B780393454B1D68002DE7
:1041D00000DC01250C24434E2EE01A011219520076
:1041E000925B013B8018002BF7D10199B94205DCA5
:1041F000029ABA4202DC039B002B01D0132103E098
:104200001321FFF75FFC291CFFF75CFC13230090D0
:104210001A01121933485200805A0099401A002896
:1042200002DD81B2915301E000209053013B002B4D
:10423000EED1013C002C36D013230020CDE72A4BD1
:1042400002201B6898472EE0284B294A1968181C41
:10425000002905DD1368002B02D126490B704B7035
:104260001368002B1FDD0368002B1CD1224A13703A
:10427000537018E0184B04229A70872252009A80DB
:1042800020229A710522DA7101221A721E225A72B4
:1042900000221A70194B9A785A7004E00E48184997
:1042A0005C22FFF771FC05B0F0BDC046FF4B00007B
:1042B000200600202E0C002021060020204E0000A9
:1042C000A00B0020A40300200F1300207A07002079
:1042D0000B0400204210002046100020050400209E
:1042E0001C0100200008004054000020CC000020E9
:1042F0005C01002038100020BD0B00201C0D0020A8
:10430000404C0000024B1A68024B1A607047C046CE
:10431000600000206400002008B5FFF7F3FF08BD2F
:1043200000B5074A074B10681968884202DB10681D
:104330001B6802E010681B681E30C01A00BDC04632
:10434000600000206400002010B50A4C062221689D
:10435000094B51431B6809485918FFF715FC23689E
:104360000133236023681D2B02DD23681E3B23607D
:1043700010BDC046640000202C000020A8100020C2
:10438000F7B59A4A13881BB20F2B54D024DC072BA5
:1043900000D1F3E00EDC032B00D199E003DC022B0B
:1043A00000D022E188E0042B00D19AE0052B00D058
:1043B0001BE17CE00B2B00D19BE006DC082B00D13D
:1043C000E7E00A2B00D010E1F0E00C2B00D196E0E2
:1043D0000D2B00D009E199E0B22B27D010DCAE2BD9
:1043E00000D1EEE005DC102B4BD01F2B00D0FCE001
:1043F000BDE0AF2B00D1EBE0B12B00D0F5E011E038
:10440000C22B00D197E006DCC02B00D185E0C12B88
:1044100000D0EAE087E0E32B00D193E0F62B00D058
:10442000E3E092E0724A1178724A1170724A117890
:10443000B222D31AA0E0FFF773FF704C206023680C
:10444000002B01D1FEF78FFA236806225A43694BED
:104450006B4C1A700025694E0FE0FFF775FF684638
:1044600068490622FFF790FB002369465A5CE25434
:104470000133062BF9D10135063433689D42ECDB5C
:10448000B3E061495D4A0C68136806205843002375
:1044900084420ADA5A4A0868564D1018C45C581902
:1044A00001330470082BF6D19FE013609DE0574B59
:1044B0005A8E504B1A7098E0554A0F231A27D15F35
:1044C000527F091152B2994313404A4ACB181370D4
:1044D000464B1A88032312B29A1A4D4B998B454BBF
:1044E000D154424B1A88042312B29A1A484B598B62
:1044F00064E01288132112B29B1A3E4A99543B4B36
:104500003C4A19880C2309B2591A8B54374B1A8824
:10451000404B12B219780D234FE012884D2112B290
:104520009B1A344A9954314B45211A88C12312B23F
:104530009A1A304BD1542D4B0F211A88C22312B234
:104540009A1A3BE01288324913E02F4C3048002180
:10455000158826682DB2861976185D1B254F4D19D2
:10456000F678ED1901312E700A29F1D13DE012885B
:10457000294912B209789B1A1E4A20E0128812B209
:104580009B1A264A128811B2C943C9170A40194911
:104590005A54164B1988082309B2591A1F4B5B88C5
:1045A0001AB2D243D2171340124A8B540F4B1A88B7
:1045B000164B12B2363319780A239A1A0D4BD1547E
:1045C00013E0174B1A780B4B1A70FEF7CCF90CE07E
:1045D00014490D4A00230C681068064D2018C45C6D
:1045E000581901330470082BF5D1F7BD1C000020C9
:1045F000070400201000005006040020A410002032
:1046000068000020A8100020200000204610002094
:104610002E0C0020E80B00203E000020421000205D
:104620008F070020280E002073B50F4C0F4D00900F
:10463000019120681E211F302E68FFF799FAB142C0
:10464000F7D0206806225043094B69461B681818AA
:10465000FFF79AFA23680133236023681D2B02DDDC
:1046600023681E3B236073BD6000002064000020AF
:104670002C00002007B5012802D002280BD101E050
:104680000F2300E00E236A461370002353709370CB
:10469000D3701371537100980199FFF7C5FFFEF7AE
:1046A0005BF907BD07B506235A4301910449009001
:1046B0000868694680181A1CFFF766FA07BDC046ED
:1046C0002C000020F0B58BB0002701247E4E029410
:1046D0003D1C7E483C180421635E06A80693182200
:1046E000A35E0793FDF730FF0020335E002B57DDFC
:1046F000774BAA00D3185A68DB6B04A80492059381
:10470000FDF722FF069A079B0392059A0499D31A94
:104710009C46704B40331B7801936346D8171B1897
:1047200043409C46019B9C4507DA039BC81AC3176C
:10473000C0185840019B984203DB674B5B5D002B20
:1047400003D12C20235E002B52DC60246042029CAB
:10475000EBB22043019308AB0F24187008122040DD
:1047600003901011A043041C03989970F18804432E
:10477000DA705C701422132900D8CAB21A71328818
:1047800011B2C82900DDC8225A710198FFF77CFCDC
:10479000021C0898511C01D1099923E0099925E0D0
:1047A0002C22A35E002B23DD0298202308AC0343B8
:1047B000069A2370079B10120F211B118B43084090
:1047C000184360701C216846085C0023A270E070EA
:1047D00023716371E8B2FFF757FC021C0898511C63
:1047E00003D16168FFF720FF02E06168FFF75AFF1D
:1047F000029C023701340135029408360A2F00D09A
:1048000067E7364B5A68364B5B68501C38D09A4283
:1048100050D0591C17D04022013308AC13432370E9
:1048200000236370A370E370237163710520FFF7A9
:104830002BFC021C61680898531C02D1FFF7F4FEA0
:1048400001E0FFF72FFF254A402351685B42481CD7
:1048500008AC03432370043100236370A370E3703A
:1048600023714900535A05206371FFF70DFC021CA8
:10487000501C02D10898616817E00898616817E039
:10488000591C17D04022013308AC13432370002376
:104890006370A370E370237163710520FFF7F4FB6D
:1048A000021C61680898531C02D1FFF7BDFE01E0AD
:1048B000FFF7F8FE0B4B1A680B4B1B689A4201D0AE
:1048C000FEF74AF80BB0F0BDFC0200201C010020EE
:1048D00088020020461000207C020020D800002022
:1048E000C0000020640000206000002070B5051C9E
:1048F0000E1C141C502805D1464B01201860FFF7F0
:104900008BFB85E0402803D1434B01221A700CE059
:104910004D280AD1414B26221A7028224A43404B87
:10492000D218404B1A60FEF717F83B4B1A78002A52
:104930006ED0281C41380E286AD8FFF76BF8081093
:10494000081F08306969693E475669696700334B3B
:1049500001221A70344B1A80324A136053E02F4BF5
:10496000FF2C03D126221A70002401E002221A70C3
:1049700014235E43A41964002C4B0DE0274BFF2C3D
:1049800003D126221A70002401E002221A70142397
:104990005E43234BA4196400E418224B32E01F4B02
:1049A000FF2C03D126221A70002401E002221A7083
:1049B00014235E431E4BA419EEE71849194B1D4AF8
:1049C000FF2C08D00220087064000CE01349154B3E
:1049D000194AFF2C04D1194800784000C0B20BE0FE
:1049E000022008708440121907E00C490D4B144A4C
:1049F000FF2C04D11148007808701A6003E00120F0
:104A0000087014191C60FDF7A7FF01E000221A705E
:104A100070BDC04660140020120400208F070020E3
:104A2000AE100020280E002074070020300E002059
:104A3000240D0020421000203C060020E80B00203E
:104A40001A0D002008B53A4B1B88302B6AD004D8C9
:104A50000A2B2AD01E2B69D15BE0A02B04D0B02BEF
:104A60003AD05F2B62D108E0324B1878324B19787C
:104A7000324B1A78FFF73AFF58E0A023DB0519689C
:104A80002F4A0A408021C9010A431A6019682D4A39
:104A90000A408021C9000A431A6019682A4A0A405C
:104AA0009021C9050A431A6040E0284A0123137087
:104AB000274A1370274A4023111DCB77511D063218
:104AC000D377CB77244B06221A7714225A860522F5
:104AD0005A743E33032228E0164B1B78002B25D056
:104AE0008023DB0599681D4A0A409A6099681C4A30
:104AF0000A409A6099681B4A0A409A605968802265
:104B000012010A435A60C046C046C046C04662B65B
:104B10000CE0084B1A78144B002A01D0002204E064
:104B2000012202E0034B1A78104B1A7008BDC046F0
:104B30001C0000200C0000500E0000500D00005022
:104B4000FF0FFFFFFFF8FFFFFFFFFF800B040020B8
:104B50000D0400202E0C002046100020FFFDFFFF5A
:104B6000FFFBFFFFFFF7FFFF1104002033000020D1
:104B7000FFFFFFFFFFFFFFFFFFFFFFFFFFFFFFFF45
:104B8000FFFFFFFFFFFFFFFFFFFFFFFFFFFFFFFF35
:104B9000FFFFFFFFFFFFFFFFFFFFFFFFFFFFFFFF25
:104BA000FFFFFFFFFFFFFFFFFFFFFFFFFFFFFFFF15
:104BB000FFFFFFFFFFFFFFFFFFFFFFFFFFFFFFFF05
:104BC000FFFFFFFFFFFFFFFFFFFFFFFFFFFFFFFFF5
:104BD000FFFFFFFFFFFFFFFFFFFFFFFFFFFFFFFFE5
:104BE000FFFFFFFFFFFFFFFFFFFFFFFFFFFFFFFFD5
:104BF000FFFFFFFFFFFFFFFFFFFFFFFFFFFFFFFFC5
:104C0000FFFFFFFFFFFFFFFFFFFFFFFFFFFFFF01B2
:104C10004D314853434634340146014B594C455FAE
:104C2000473146000048103C1E0A01010101000501
:104C300000002003E00100000001012D32320100DC
:104C400028000000000000001400140732320D009C
:104C50000101040090011803050A0000030F0F0072
:104C60000408050018FC14190AF6079C0800D30272
:104C70008002E00208026801F0003000021FB50265
:104C800000001E000F00140A3C0064001E00020118
:104C9000011432001E003C000A0101070700FFFF5B
:104CA00000008E06EE003C03C1000100010104007B
:104CB00090011803050A0000030F0F000408050007
:104CC00018FC14190AF6079C0D00C4019001CC01D0
:104CD0004501E10096003000021F000000001E00A8
:104CE0000F001E143C012C013C000301011E900129
:104CF000C800F4010A0101070700FFFF0000FF7F61
:104D00000080FF7F008019000908070605040302E0
:104D10000100141312110F0B0C0D0E0A00000001FC
:104D200002030405060708090A0B0000001313021A
:104D300009FFFFFFFEFEFEFEFDFDFDFDFDFCFCFC90
:104D4000FCFCFCFCFF0000FFFFFEFEFEFEFEFDFD86
:104D5000FDFDFDFCFCFCFCFCFCFCFF0000FFFFFE7D
:104D6000FEFEFEFEFDFDFDFDFDFCFCFCFCFCFCFC76
:104D7000FC0000FFFFFEFEFEFEFDFDFDFDFDFDFC57
:104D8000FCFCFCFCFCFCFE0000FFFFFEFEFEFEFD4A
:104D9000FDFDFDFDFDFDFCFCFCFCFCFCFD0000FF41
:104DA000FFFEFEFEFEFDFDFDFDFDFDFDFCFCFCFC31
:104DB000FCFCFD0000FFFFFEFEFEFEFDFDFDFDFD17
:104DC000FDFDFCFCFCFCFCFCFD0000FFFFFEFEFE0C
:104DD000FEFDFDFDFDFDFDFDFCFCFCFCFCFCFD0005
:104DE00000FFFFFEFEFEFEFDFDFDFDFDFDFDFCFCEA
:104DF000FCFCFCFCFD0000FFFFFEFEFEFEFDFDFDD9
:104E0000FDFDFDFCFCFCFCFCFCFCFC0000FFFFFECF
:104E1000FEFEFEFDFDFDFDFDFDFDFDFCFCFCFCFCC4
:104E2000FE0000FFFEFEFEFEFEFDFDFDFDFDFDFDA4
:104E3000FDFCFCFCFCFCFC0000000000000000008D
:104E40000000000000000000000000000000000062
:104E50000000000000000000000000000000000052
:104E60000000000000000000000000000000000042
:104E70000000000000000000000000282C2E2E2E54
:104E80002E2E302E2E2D2D312F303032332B002967
:104E90002D2F2F2F2F2E2F2E2F2C2C312F2F2F2E2B
:104EA0002E2C002A2D30302F2F30302F2F2F34383A
:104EB00038393A38382F002C2E2F2F2E2F31312E03
:104EC0002F2D2C2D312F302F2E2C002D2E2F2F2F2C
:104ED0002E322F2E2F2D2D2D2F30302E2E2D002D1A
:104EE0002E2F2F2F2E302F2E2E2D2E2E2F302F2ED9
:104EF0002E2E002C2D2E2E2D2E2F2F2D32333434EE
:104F000038383736372D002C2D2E2E2E2E302F2EC2
:104F10003233333338383836362E002C2E2D2E2EA1
:104F20002E2F2E2D3133353438393735362D002D8F
:104F30002C2D2E2C2E2F2F2E2F3135353939393857
:104F40003830002C2D2C2D2D2C2E2E2D2E2C2C2DB2
:104F50002E333333332C002D2D2D2D2D2E2F2F2F8F
:104F60002E2B2C2D30333333332C00000000000067
:104F70000000000000000000000000000000002C05
:104F80002CFFFFFFFFFFFFFFFFFFFFFFFFFFFFFF04
:104F9000FFFFFFFFFFFFFFFFFFFFFFFFFFFFFFFF21
:104FA000FFFFFFFFFFFFFFFFFFFFFFFFFFFFFFFF11
:104FB000FFFFFFFFFFFFFFFFFFFFFFFFFFFFFFFF01
:104FC000FFFFFFFFFFFFFFFFFFFFFFFFFFFFFFFFF1
:104FD000FFFFFFFFFFFFFFFFFFFFFFFFFFFFFFFFE1
:104FE000FFFFFFFFFFFFFFFFFFFFFFFFFFFFFFFFD1
:104FF000FFFFFFFFFFFFFFFFFFFFFFFFFFFFFFFFC1
:10500000FFFFFFFFFFFFFFFFFFFFFFFFFFFFFF00AF
:00000001FF
